S01500004943455F534C494E5F467630332E737265632B
S31508004000800D0020C5730008F9720008FB720008CD
S31508004010FD720008FF720008017300080000000026
S315080040200000000000000000000000000373000804
S3150800403005730008000000000773000809730008EC
S3150800404005740008097400080D7400081174000846
S3150800405015740008197400081D74000821740008F6
S3150800406025740008297400082D74000831740008A6
S3150800407035740008397400083D7400084174000856
S3150800408045740008497400084D7400085174000806
S315080040900B730008597400085D7400086174000801
S315080040A065740008697400086D7400087174000866
S315080040B07574000879740008137300088174000881
S315080040C085740008897400088D74000891740008C6
S315080040D095740008997400089D740008A174000876
S315080040E0A5740008A9740008AD740008B174000826
S315080040F0B5740008B9740008BD740008C1740008D6
S31508004100C5740008C9740008CD740008D174000885
S31508004110D5740008D9740008DD740008E174000835
S31508004120E5740008E9740008ED740008F1740008E5
S3150800413010B50400A4B2002C06D1DFF8D00B006835
S3150800414001210182002008E0DFF8C40B006800683E
S315080041508047DFF8B80B00680A3010BD80B5DFF875
S31508004160B40B4078DFF8A41B0968C97888421AD3CB
S31508004170DFF8980B00688078002814D1DFF88C0BDC
S315080041800068808800280ED1DFF8800B0068DFF809
S315080041907C1B0968C9788172DFF8740B006840686F
S315080041A08047002000E0022002BD10B50400A4B23A
S315080041B0002C06D1DFF8540B00680121018200208B
S315080041C008E0DFF84C0B006880688047DFF83C0B96
S315080041D000680C3010BD10B5DFF8300B0068C178E8
S315080041E0DFF8280B00684079DFF8B02B126892696F
S315080041F090470400DFF8140B0068807A00282AD05C
S31508004200E4B2002C0BD1DFF8040B00680079002813
S3150800421005D1DFF8F80A00688078002801D0022066
S315080042201AE0E4B2002C16D1DFF8E40A0068C06888
S315080042308047DFF8D80A0068DFF8D01A0968497994
S31508004240C172DFF8C80A0068DFF8C01A0968C978B9
S315080042500173002000E0022010BD10B50400A4B2CE
S31508004260002C06D1DFF8A40A00680221018200208A
S315080042707FE0DFF82C0B00210180DFF8900A006848
S3150800428000787F2108422AD1DFF8800A0068407A40
S31508004290810608D5DFF8081B097851F00201DFF816
S315080042A0002B117007E0DFF8F81A097811F0FD0104
S315080042B0DFF8EC2A1170410608D5DFF8E41A097808
S315080042C051F00101DFF8D82A11704BE0DFF8D01A57
S315080042D0097811F0FE01DFF8C82A117042E0DFF80C
S315080042E02C0A0068007810F07F00012802D1DFF858
S315080042F0B00A3EE0DFF8140A0068007810F07F0084
S3150800430002282DD1DFF8041A0968497911F00F023D
S3150800431010000A0611D5C0B2DFF8882A52F8202004
S3150800432012F03002102A1DD1DFF8742A127852F0E2
S315080043300102DFF86C3A1A7014E0C0B2DFF8642A9A
S3150800434052F8202012F44052B2F5805F0AD1DFF805
S31508004350502A127852F00102DFF8443A1A7001E046
S31508004360002006E0DFF8A809006800698047DFF842
S31508004370300A10BD2DE9F843DFF890090068007887
S3150800438010F07F04002C0BD1DFF880090068407A12
S3150800439010F0DF00DFF874190968487200209EE003
S315080043A0022C40F09B80DFF86409006840880028EA
S315080043B005D1DFF8580900680079002801D00220E5
S315080043C08DE0DFF850090600DFF8400900684079FB
S315080043D0804638F0800081464F46DFF8300900688D
S315080043E04079000607D5DFF8BC0950F8270010F019
S315080043F03000050006E0DFF8AC0950F8270010F495
S31508004400405005003078814507D2002D05D0DFF8E9
S31508004410FC080068807A002801D102205FE0404647
S31508004420000611D5DFF87C0950F8270010F0300097
S3150800443010284CD13800C0B200F09FFD302138005A
S31508004440C0B200F0FAFC42E0DFF8580950F827003D
S3150800445010F44050B0F5805F39D1002F1ED1DFF837
S31508004460480990F82C1089B23800C0B200F0E9FD6E
S31508004470DFF8301951F827104BF68F7211400800F3
S3150800448090F4805090F40050DFF8181940F400407A
S3150800449050F0800080B241F8270018E03800C0B21A
S315080044A000F052FDDFF8FC1851F827104BF68F7212
S315080044B01140080090F4805090F40050DFF8E4189A
S315080044C040F4004050F0800080B241F82700DFF841
S315080044D04008006840698047002000E00220BDE8E7
S315080044E0F283F8B5DFF8240800684079040034F050
S315080044F0800006003500DFF81408006840790006D9
S3150800450007D5DFF8A00850F8250010F0300007009E
S3150800451006E0DFF8900850F8250010F44050070030
S31508004520DFF8F007007885420DD2DFF8E00700686B
S315080045304088002807D1002F05D0DFF8D00700688B
S31508004540807A002801D102202FE02000000613D52A
S31508004550DFF8501851F8251048F6BF7211400800C8
S3150800456090F01000DFF83C1840F4004050F080004E
S3150800457080B241F8250012E0DFF8281851F8251016
S315080045804BF68F721140080090F48050DFF814182B
S3150800459040F4004050F0800080B241F82500DFF872
S315080045A070070068806980470020F2BD80B5DFF893
S315080045B05C070068407A50F02000DFF85017096859
S315080045C04872DFF84C070068C0698047002002BDC2
S315080045D010B40200DFF834070068408A030092B27C
S315080045E0002A07D18888C01ADFF820472468208265
S315080045F0002001E00868181810BC7047F8B5DFF805
S315080046000C07006810F1100420880500A06800282F
S315080046101BD0002D19D0A0880700BD4200D22F005C
S31508004620380080B2A168884706002088C01B208011
S31508004630608838186080002000F0E9FC3A0092B2E1
S31508004640010089B2300000F068FD208800280CD0EF
S31508004650DFF858074FF4405101800021002000F090
S31508004660E3FCDFF84C07302101802088A1888842C6
S3150800467005D3DFF898060068032101721DE020883B
S31508004680012805D3DFF8840600680521017214E0C5
S315080046902088002811D1DFF8740600680621017207
S315080046A0DFF81007006880B2DFF80C17002241F81F
S315080046B01020DFF8FC0630210180F1BD2DE9F0411C
S315080046C0DFF84806006810F110042588DFF83C0674
S315080046D00068067A002D21D1042E1FD1DFF8DC06EA
S315080046E00078012813D1DFF8CC06006880B2DFF81D
S315080046F0C816002241F81020DFF8B40630210180E0
S3150800470004200600DFF8B4060021017005E0072042
S315080047100600DFF89C06102101802EE0A08880465E
S31508004720A84501D3042600E00226454500D2A8463E
S31508004730404680B2A16888470700002000F05AFC6E
S31508004740424692B2010089B2380000F0C6FC4146E2
S3150800475089B2002000F068FC2088B0EB08002080B1
S31508004760608818EB00006080DFF84406302101807D
S31508004770DFF838064FF440510180DFF890050068ED
S315080047800672BDE8F08170B50224DFF8800500687E
S315080047904578DFF87805006800787F21084255D10A
S315080047A0092D03D1FFF7DAFC040073E0052D1DD1AE
S315080047B0DFF858050068C078802811D2DFF84C0564
S315080047C00068807800280BD1DFF8400500688088EB
S315080047D0002805D1DFF834050068807A002802D061
S315080047E0082006007CE00020040053E0032D12D1C7
S315080047F0DFF818050068C078012809D1DFF80C052C
S3150800480000688088002803D1FFF7D0FE040041E045
S31508004810022004003EE0012D3CD1DFF8F0040068D8
S31508004820C07801280FD1DFF8E404006880880028E2
S3150800483009D1DFF8D8040068407A800603D5FFF767
S3150800484099FD040026E00220040023E0DFF8BC04FA
S315080048500068007810F07F00012805D10B2D19D1CA
S31508004860FFF7B9FC040015E0DFF8A004006800783B
S3150800487010F07F0002280BD1012D03D1FFF77AFD36
S31508004880040007E0032D05D1FFF72BFE040001E025
S3150800489002200400E4B2002C0DD02800C0B2DFF8D4
S315080048A0FC140968496988470400E4B2032C02D15C
S315080048B00920060014E0E4B2002C02D00820060005
S315080048C00EE006200600DFF8EC04006880B2DFF888
S315080048D0E814002241F81020DFF8D40430210180C2
S315080048E0DFF828040068067270BD2DE9F04782B02B
S315080048F0DFF8180400684678002004000020814686
S31508004900062E27D1DFF80404006800787F210842C4
S3150800491040F0D080DFF8F40300688078C0B2012840
S3150800492005D1DFF878140968C9690C00C2E0C0B27D
S31508004930022805D1DFF864140968096A0C00B9E091
S31508004940C0B2032840F0B680DFF850140968496AF7
S315080049500C00AFE0002E78D1DFF8B003006840887D
S31508004960002872D1DFF8A4030068C08802286CD139
S31508004970DFF8980300680079002866D1DFF88C0311
S31508004980006800787F21084209D1DFF880030068B3
S315080049908088002803D1DFF8280404008AE0DFF8BD
S315080049A06C030068007810F07F00012815D10021FB
S315080049B0DFF8580300684079DFF8E0231268926947
S315080049C09047002876D1DFF844030068807A0028EB
S315080049D070D0DFF8EC0304006CE0DFF83003006801
S315080049E0007810F07F00022864D1DFF82003006801
S315080049F0407910F00F000700DFF8100300684079CF
S31508004A0010F070008046C14800684079000607D556
S31508004A10DFF8900350F8270010F03000824606E0D1
S31508004A20DFF8800350F8270010F440508246B94852
S31508004A30007887423ED2B8F1000F3BD1BAF1000F99
S31508004A4038D0DFF87C03040034E0082E09D1AF48DB
S31508004A50006800787F2108422CD1DFF8680304003B
S31508004A6028E00A2E26D1A9480068007810F07F00B1
S31508004A7001281FD1A5480068807A00281AD0A348C3
S31508004A8000684088002815D1A048006800790028E9
S31508004A9010D19E480068C08801280BD100219B4888
S31508004AA000684079BD4A126892699047002801D18A
S31508004AB0C5480400200000280BD094480068A0F8D8
S31508004AC012909248006884610020A04700200500E3
S31508004AD00FE08E4800684078B04909680969884738
S31508004AE00500EDB2032D04D188480068092101723A
S31508004AF064E086480068008A4FF6FF71884204D150
S31508004B00824800680921017258E0EDB2022D04D0EE
S31508004B107E480068008A002804D17C48006808217D
S31508004B2001724BE079480068007800063ED5774860
S31508004B300068C0880090009874490968098A884204
S31508004B4004D2724800680099018225E06F4800681F
S31508004B50008A6E490968C98888421DD26B48006870
S31508004B60008A8E49096891F82C1089B2884203D2C6
S31508004B709248002101700FE064480068008A87495E
S31508004B80096891F82C1090FBF1F201FB120000283D
S31508004B9002D18A48012101705C4800687F4909688A
S31508004BA091F82C108182FFF789FD07E057480068C5
S31508004BB0032101727D484FF440510180BDE8F38717
S31508004BC038B501257B48006880B2804931F8100065
S31508004BD0400000F1804010F5C04004004B480068D2
S31508004BE0007A092826D04948006821780170641C93
S31508004BF04648006821784170641CADB214EB450440
S31508004C002000841C008800F05DFA40490968488045
S31508004C10ADB214EB45042000841C008800F052FA5B
S31508004C203A4909688880ADB214EB450437480068EC
S31508004C302188C1803548006801210172334800681F
S31508004C40C088002802D1FFF79EFD01E0FFF74DFE60
S31508004C5000F062F832BD10B52C480068047A022CC0
S31508004C6001D0042C06D1FFF729FD28480068007AF0
S31508004C7004001EE0062C1AD124480068407805284E
S31508004C800ED12248006800787F21084208D11F48C3
S31508004C900068C07800F05EF81D480068006A804722
S31508004CA03E480068806880470820040001E0082024
S31508004CB0040016480068047200F02EF810BD10B5FE
S31508004CC012480068047A022C01D0042C02D108206C
S31508004CD0040015E0032C01D0052C06D1FFF78EFC45
S31508004CE00A480068007A04000AE0072C06D12B4817
S31508004CF00068C06880470820040001E00820040016
S31508004D0002480068047200F007F810BD5809002030
S31508004D1060090020E000002080B5234890F82C1098
S31508004D2089B2002000F08DF929480068007A082821
S31508004D3006D11E484FF4805101801D48102101807C
S31508004D4023480068007A092801D1012000E00020E4
S31508004D50C0B202BD30B41F4A12780023190091422E
S31508004D6015D20B00DBB20F4C54F8233048F68F747B
S31508004D7023400C00E4B2234343F4004353F080037A
S31508004D800C00E4B2074D45F82430491CE7E7C0B2E9
S31508004D9050F08003104C236030BC70475C0900203B
S31508004DA050090020005C0040000000206E09002029
S31508004DB070090020505C0040046000407A09002019
S31508004DC05B42000831410008AB410008086000401A
S31508004DD058090020E00000204C5C0040704710B4E1
S31508004DE050F8041B81B102681218001D50F8043BE4
S31508004DF0DC0744BFA9F10104E31852F8044B43F851
S31508004E00044B091FF9D1EBE710BC70474FF6F87150
S31508004E100140DFF8982211607047C0B2DFF890228F
S31508004E2052F8202048F68F131A400A4392B2C0B2AD
S31508004E30DFF87C3243F82020704710B4C0B2DFF8A0
S31508004E40703253F8203048F6BF7423401A00CB0658
S31508004E5001D592F010028B0601D592F02002C0B25D
S31508004E60DFF84C3242F4004252F0800292B243F824
S31508004E70202010BC704710B4C0B2DFF8343253F8A3
S31508004E8020304BF68F7423401A00CB0401D592F4D8
S31508004E9080528B0401D592F40052C0B2DFF810326A
S31508004EA042F4004252F0800292B243F8202010BC2D
S31508004EB07047C0B2DFF8F81151F8200010F0300042
S31508004EC07047C0B2DFF8E82152F8202048F6BF73D1
S31508004ED01A40110091F0100191F02001C0B2DFF8DC
S31508004EE0D02141F4004151F0800189B242F82010E6
S31508004EF07047C0B2DFF8B82152F820204BF68F73FE
S31508004F001A40110091F4805191F40051C0B2DFF8B3
S31508004F10A02141F4004151F0800189B242F82010E5
S31508004F207047C0B2DFF8881151F8201048F68F6232
S31508004F30114041F4004151F0800189B2C0B2DFF856
S31508004F40702142F820107047C0B2DFF8641151F89A
S31508004F502010490410D5C0B2DFF8541151F82010BA
S31508004F6048F68F72114041F4404151F08001C0B2B9
S31508004F70DFF83C2142F820107047C0B2DFF8301144
S31508004F8051F82010490610D5C0B2DFF8241151F89F
S31508004F90201048F68F72114041F4004151F0C001CB
S31508004FA0C0B2DFF80C2142F82010704710B4DFF8C1
S31508004FB0FC20126892B2C0B212EBC002DFF8F430DD
S31508004FC089B24C08A4B2640043F8124010BC70477A
S31508004FD010B4DFF8D820126892B2C0B212EBC00241
S31508004FE0DFF8D43089B24C08A4B2640043F8124002
S31508004FF010BC7047DFF8B410096889B2C0B211EB6B
S31508005000C000DFF8B01051F8100080B27047DFF822
S315080050109C10096889B2C0B211EBC000DFF898107D
S3150800502051F8100080B27047DFF88020126892B2FB
S31508005030C0B212EBC002DFF8843089B243F812100E
S31508005040704730B4DFF864301B689BB2C0B213EB0C
S31508005050C003DFF86C4014EB43031A0089B23F29FA
S315080050600CD389B24C0923001F24214200D15B1EB0
S315080050709BB29B0253F40043136008E089B24C08C4
S315080050802300CC0700D55B1C9BB29B02136030BC87
S3150800509070470649096889B2C0B211EBC0000849D1
S315080050A051F810008005800D70470000505C0040E4
S315080050B0005C00400060004008600040046000405A
S315080050C00C60004001000B001A0089B2D2B213022C
S315080050D053EA1123180080B27047F0B492B2531CF9
S315080050E05B1089B25FEA410C0CF1804C1CF5C04C90
S315080050F067461C00002C0ED090F800C06546401C80
S3150800510090F800C055EA0C2C66463E80BF1CBF1CB2
S31508005110401C641EEEE7F0BC704770B492B2531C94
S315080051205B1089B24E0006F1804616F5C04635007A
S315080051301C00002C06D02E6806802D1D401C401C25
S31508005140641EF6E770BC70472DE9F041002600277B
S315080051505FF0000802200400DFF8EC058078801C68
S31508005160844205D2DFF8E005205C8619641CF3E763
S31508005170D6F1FF06DFF8D0054078012814D1DFF80C
S31508005180C805C07800F006FB00200500052D07D2EB
S31508005190DFF8B4050FF2EC51695C29546D1CF5E78C
S315080051A0052000F09CFA92E2DFF89C054078022878
S315080051B021D180220021002000F02BFBDFF88C058E
S315080051C04FF480610160D02000F055FC00200400F7
S315080051D0B4F5006F09D200F0BDFCDFF86C15087055
S315080051E0012000F07CFA641CF2E7DFF860055FF046
S315080051F0806101606BE2DFF850054078032870D1C2
S315080052000120070000200400FFB2012F0BD1012165
S31508005210DFF83C0500F0E2FD0700641C41F27170FE
S315080052208442F1D359E2DFF820058079DFF82415A6
S315080052300870DFF814054079DFF81C150870DFF8E8
S3150800524008050079DFF814150870DFF8FC04C07942
S31508005250DFF8F414097A4FF4807202FB01008046E5
S31508005260DFF8F8040278DFF8F0040178DFF8E404E0
S31508005270007800F0CEFADFF8D4044FF480610160BC
S31508005280D02000F0F8FB002004001FFA88F8B8F1D7
S31508005290400F0FD300F05EFCDFF8AC146054641CBA
S315080052A0402CF2D1402000F01AFAB8F1400800204C
S315080052B00400EAE7002004001FFA88F8444506D2ED
S315080052C000F048FCDFF880146054641CF4E740469C
S315080052D0C0B200F004FADFF874045FF08061016080
S315080052E0F5E1DFF864044078042815D10121DFF8D8
S315080052F0600400F073FD0700DFF84C0407702021F6
S31508005300DFF85C0400F06AFD0700DFF83C0447702C
S31508005310022000F0E4F9DAE1DFF82C0440780528E9
S315080053201BD1DFF8240469210170DFF81C0403216E
S315080053304170DFF8140404218170DFF80C0405219C
S31508005340C170DFF804040C210171DFF8FC03162193
S315080053504171062000F0C3F9B9E1DFF8EC034078A3
S31508005360062810D1DFF8E003C07800F006FEDFF863
S31508005370D80306214170DFF8D003AA2181700320E3
S3150800538000F0ADF9A3E1DFF8C0034078072825D17E
S31508005390DFF8B4030279DFF8B0034179DFF8A80330
S315080053A0807900F036FADFF8A4034FF480610160D3
S315080053B0D02000F060FB00F0CDFBDFF88C134870BE
S315080053C000F0C8FBDFF880138870DFF880035FF011
S315080053D080610160032000F082F978E1DFF8680354
S315080053E0407845283AD1DFF8600369210170DFF873
S315080053F0580306214170DFF8500346218170DFF813
S3150800540048030121C170DFF8400304210171DFF868
S3150800541038030D214171DFF8300301218171DFF86E
S3150800542028031E21C171DFF82003C078DFF818139E
S3150800543009790818DFF8101349790818C2498979D3
S315080054400818C149C97908184B30BF490872BE48BF
S31508005450162141720A2000F042F938E1BA4840782C
S31508005460A52808D1BF494FF6FC7000F095FEBE4846
S31508005470BE4901602BE1B4484078112871D1B24881
S31508005480C078B5490870B0480079B24908708022DA
S31508005490B1480178AF48007800F0BBF9AB484FF443
S315080054A080610160D12000F0E6FA05200400A648D4
S315080054B08078801C844205D2A348205C00F0DBFA81
S315080054C0641CF4E7A1485FF0806101609E48C078DB
S315080054D0A14908709C4800799E49087080229E4818
S315080054E001789C48007800F094F998484FF4806158
S315080054F00160D02000F0BFFA0020040092488078AE
S31508005500C01E844218D200F025FB07008E482018DA
S315080055104079FFB287420DD000200500062D06D23D
S3150800552089480FF26821695C29546D1CF6E700204A
S31508005530040001E0641CE1E784485FF080610160D3
S31508005540002C0AD000200500062D06D27E480FF250
S315080055502C21695C29546D1CF6E7062000F0BFF87B
S31508005560B5E07948407812280AD1784802210160C6
S315080055700A2000F0FFFD75485FF400310160A6E0DF
S3150800558071484078132822D16F48C1786E4800794F
S3150800559000F019FB6C494870754800F0A8FF75497A
S315080055A00880744800884FF4807190FBF1F06649D2
S315080055B08870704800884FF4807190FBF1F202FB06
S315080055C011026148C270042000F089F87FE05E4845
S315080055D0407814287BD15C480079604908705A489D
S315080055E040795D490870584880795A4908705B487F
S315080055F00278594801785748007800F00AF9534864
S315080056004FF480610160D12000F073FA0020040095
S315080056104D488078401F844206D24B482018C079EE
S3150800562000F067FA641CF3E748485FF080610160A0
S315080056304548007949490870434840794649087001
S3150800564041488079434908704448027842480178BD
S315080056504048007800F0DDF83C484FF4806101606E
S31508005660D02000F008FA0020040037488078401F50
S31508005670844218D200F06EFA070033482018C07921
S31508005680FFB287420DD000200500062D06D22E480F
S315080056900FF2F801695C29546D1CF6E70020040036
S315080056A001E0641CE1E729485FF080610160002C95
S315080056B00AD000200500062D06D223480FF2BC01A9
S315080056C0695C29546D1CF6E7062000F008F82A489C
S315080056D0002101700320FFF70CFCBDE8F08138B506
S315080056E004000025E4B2402C15D30120FFF7E1FBA6
S315080056F02028FAD14022C021EDB213482818FFF716
S31508005700ECFC40210120FFF78FFC0120FFF7D9FBB5
S315080057104035403CE6E70120FFF7CBFB2028FAD1CD
S31508005720E4B2220092B2C021EDB207482818FFF76A
S31508005730D4FCE4B2210089B20120FFF775FC0120F0
S31508005740FFF7BFFB31BD0000E8080020100C014040
S31508005750000C014075090020760900207709002011
S315080057600008014055AA55AA0CED00E00400FA0508
S31508005770000800406A090020780900206901121310
S31508005780160000006901E2E3160000006902F2054E
S31508005790F916000010B4DFF800354FF480641C6079
S315080057A000231900C9B208291DD2C0B250FA01F364
S315080057B01A00D2B2D30705D5DFF8DC344FF480548B
S315080057C01C6004E0DFF8D0345FF080541C60DFF81A
S315080057D0C8344FF400641C60DFF8BC345FF0006422
S315080057E01C60491CDEE7DFF8B0345FF080541C60AB
S315080057F0DFF8A4344FF400641C60DFF89C345FF0D3
S3150800580000641C60DFF890345FF080641C6010BC94
S31508005810704770B4DFF880544FF480662E60002518
S315080058202B00DBB2082B1CD2A0251D412C00E4B2AC
S31508005830E50705D5DFF860544FF480562E6004E07E
S31508005840DFF854545FF080562E60DFF84C544FF45E
S3150800585000662E60DFF840545FF000662E605B1C21
S31508005860DFE7DFF834545FF080562E60DFF82854FF
S315080058704FF400662E60DFF820545FF000662E6055
S3150800588000252B00DBB2082B1DD2C0B250FA03F557
S315080058902C00E4B2E50705D5DFF8FC534FF4805633
S315080058A02E6004E0DFF8F0535FF080562E60DFF8D4
S315080058B0E8534FF400662E60DFF8DC535FF00066AD
S315080058C02E605B1CDEE7DFF8D0535FF080562E6053
S315080058D0DFF8C4534FF400662E60DFF8BC535FF060
S315080058E000662E60DFF8B0535FF080662E60DFF842
S315080058F0A8534FF480662E6000252B00DBB2082BD8
S315080059001CD2A1251D412C00E4B2E50705D5DFF818
S3150800591088534FF480562E6004E0DFF87C535FF01E
S3150800592080562E60DFF870534FF400662E60DFF85D
S3150800593068535FF000662E605B1CDFE7DFF858539C
S315080059405FF080562E60DFF850534FF400662E60E5
S31508005950DFF844535FF000662E6000252B00DBB2AB
S31508005960082B19D2C9B251FA03F52C00E4B2E5079F
S3150800597004D5C94D4FF480562E6003E0C64D5FF03E
S3150800598080562E60C44D4FF400662E60C24D5FF0FF
S3150800599000662E605B1CE2E7BF4D5FF080562E6006
S315080059A0BD4D4FF400662E60BB4D5FF000662E605D
S315080059B0B94D5FF080662E60B74D4FF480662E6055
S315080059C000252B00DBB2082B18D2A2251D412C007E
S315080059D0E4B2E50704D5B04D4FF480562E6003E0D7
S315080059E0AD4D5FF080562E60AB4D4FF400662E60CD
S315080059F0A94D5FF000662E605B1CE3E7A64D5FF0DD
S31508005A0080562E60A44D4FF400662E60A24D5FF0BE
S31508005A1000662E6000252B00DBB2082B19D2D2B205
S31508005A2052FA03F52C00E4B2E50704D59A4D4FF473
S31508005A3080562E6003E0984D5FF080562E60964D96
S31508005A404FF400662E60944D5FF000662E605B1C76
S31508005A50E2E7914D5FF080562E608F4D4FF4006659
S31508005A602E608D4D5FF000662E608B4D5FF0806670
S31508005A702E6070BC7047F8B50400002701218748DE
S31508005A8000F0ACF9012807D17F1C41F27170BFB252
S31508005A908742F3D300202BE000200500EDB2082D45
S31508005AA019D2E4B254FA05F00600F6B2F00704D5A6
S31508005AB079484FF48051016003E077485FF08051E0
S31508005AC0016075484FF40061016073485FF000613A
S31508005AD001606D1CE2E770485FF0805101606E4816
S31508005AE04FF4006101606C485FF0006101600120BD
S31508005AF0F2BD30B40100002400200200D2B2082A08
S31508005B0019D2C9B251FA02F00300DBB2D80704D59C
S31508005B1061484FF48055056003E05F485FF08055A3
S31508005B2005605D484FF4006505605B485FF00065F9
S31508005B300560521CE2E758485FF0805505605648F4
S31508005B404FF40065056054485FF000650560012064
S31508005B5030BC7047F8B500270121504800F03EF9DF
S31508005B60012807D17F1C41F27170BFB28742F3D377
S31508005B70002027E00020060000200400E4B2082CDC
S31508005B8012D245484FF4006101608021444800F074
S31508005B9025F90500EDB215FA04F006433E485FF014
S31508005BA000610160641CE9E73B485FF080510160D1
S31508005BB039484FF40061016037485FF000610160C1
S31508005BC03000C0B2F2BD2DE9F04104000D000022FC
S31508005BD02900C9B22000C0B2FFF71BFE2E484FF4B9
S31508005BE08061016000200600F6B2082E18D2D02087
S31508005BF030410700FFB2F80704D527484FF4805113
S31508005C00016003E024485FF08051016022484FF4A8
S31508005C100061016020485FF000610160761CE3E7DF
S31508005C201D485FF0805101601B484FF40061016018
S31508005C3019485FF0006101600020804600200600D8
S31508005C40F6B2082E13D214484FF400610160802181
S31508005C50134800F0C3F80700FFB217FA06F050EA37
S31508005C6008080D485FF000610160761CE8E70A48FD
S31508005C705FF08051016008484FF4006101600648F2
S31508005C805FF00061016004485FF080610160404692
S31508005C90C0B2BDE8F0810000100C0140000C0140C4
S31508005CA000080140F0B50027002200230024002543
S31508005CB0002691F803C01CF00F0C674691F803C044
S31508005CC05FEACC6C03D591F802C05CEA070791F845
S31508005CD000C05FEA0C6C3AD0D0F800C065465FF0A9
S31508005CE0000C6346082B31D25FF0010C1CFA03FC4A
S31508005CF06446B1F800C014EA0C0C6246A24223D1ED
S31508005D005FEA830C64465FF00F0C1CFA04FC6646D7
S31508005D10B54317FA04FC5CEA050591F803C0BCF123
S31508005D20280F06D15FF0010C1CFA03FCC0F814C05A
S31508005D300AE091F803C0BCF1480F05D15FF0010CE9
S31508005D401CFA03FCC0F810C05B1CCBE70560B1F871
S31508005D5000C04FF4807EF4453FD3D0F804C06546B2
S31508005D605FF0000C6346082B36D25FF0010C13F186
S31508005D70080E1CFA0EFC6446B1F800C014EA0C0CB6
S31508005D806246A24226D15FEA830C64465FF00F0C96
S31508005D901CFA04FC6646B54317FA04FC5CEA0505DA
S31508005DA091F803C0BCF1280F07D15FF0010C13F17D
S31508005DB0080E1CFA0EFCC0F814C091F803C0BCF11A
S31508005DC0480F07D15FF0010C13F1080E1CFA0EFC00
S31508005DD0C0F810C05B1CC6E74560F0BD0200002095
S31508005DE093689BB20B4202D00123180001E00023FE
S31508005DF01800C0B2704789B20161704789B2416123
S31508005E00704750F8041B61B150F8042BD30744BF00
S31508005E10A9F101039A18002342F8043B091FFAD195
S31508005E20EFE7704780B500F0F1FB0121042000F090
S31508005E30B4FC0121082000F0B0FC0121112000F07B
S31508005E40ACFC01BD80B5A020ADF8000048208DF857
S31508005E50030003208DF8020000A9BF48FFF722FFC0
S31508005E600120ADF8000010208DF8030002208DF8FF
S31508005E70020000A9B848FFF715FFB8485FF480315B
S31508005E80016049F60260ADF8000010208DF80300A5
S31508005E9003208DF8020000A9B148FFF703FFB148B7
S31508005EA04FF400410160AF485FF400310160AD482E
S31508005EB05FF0007101600120ADF8000048208DF800
S31508005EC0030003208DF8020000A9A548FFF7EAFEA3
S31508005ED04FF46040ADF8000010208DF80300022052
S31508005EE08DF8020000A9A048FFF7DCFE012000F0AB
S31508005EF07FFC002000F03BFC9A485FF0806101605F
S31508005F0098485FF00061016096485FF08051016033
S31508005F1096484FF40041016094484FF400510160DF
S31508005F2092484FF48041016001BD10B582B004006B
S31508005F30E4B2002C12D04FF48060ADF800001020B7
S31508005F408DF8030002208DF8020000A98248FFF7A9
S31508005F50A9FE82484FF4806101600DE04FF480602D
S31508005F60ADF8000004208DF8030002208DF8020029
S31508005F7000A97948FFF796FE13BD10B588B004004E
S31508005F804FF48070ADF80C0003208DF80E00182031
S31508005F908DF80F0003A97048FFF784FE012105203C
S31508005FA000F0FBFB01214FF4006000F0F6FBE4B2C1
S31508005FB0002C68D0E4B2092C09D10020ADF8000005
S31508005FC00220ADF804000120ADF816005BE0E4B24B
S31508005FD0082C09D10020ADF800000820ADF804000F
S31508005FE00420ADF816004EE0E4B2042C09D10020D6
S31508005FF0ADF800001120ADF804000920ADF8160030
S3150800600041E0E4B2022C09D10020ADF800002320BB
S31508006010ADF804001220ADF8160034E0E4B2012C05
S3150800602009D10020ADF800004720ADF8040024206F
S31508006030ADF8160027E0E4B2502C09D10020ADF8DF
S3150800604000008F20ADF804004820ADF816001AE0CD
S31508006050E4B2452C09D10020ADF800009D20ADF82A
S3150800606004004F20ADF816000DE0E4B2322C0AD138
S315080060700020ADF800004FF40860ADF804004FF4B6
S315080060808860ADF816000020ADF802000020ADF8D3
S31508006090060000A9364800F0F5F86020ADF81000B3
S315080060A00120ADF812000020ADF814000020ADF86C
S315080060B018000020ADF81A000020ADF81C000020DA
S315080060C0ADF81E0004A92A4800F026F9E4B2002C0F
S315080060D00BD10021264800F0C0F90021244800F021
S315080060E0AEF9002000F077FB0AE0002000F073FB11
S315080060F001211F4800F0B1F901211D4800F09FF960
S31508006100E4B2362C0BD10021194800F0A6F900217B
S31508006110174800F094F9072000F05DFB0DE0E4B2A3
S31508006120722C0AD10021124800F097F90021104874
S3150800613000F085F9042000F04EFBE4B2162C04D1D9
S3150800614008484FF40071016003E006485FF00071EB
S31508006150016008B010BD00000008014010080140A9
S31508006160000C0140100C01400010014010100140C5
S31508006170002C014000231A0092B280B2824209D252
S3150800618042F23413190089B2012901D3491EFAE7EC
S31508006190521CF1E77047000070B582B004000D008C
S315080061A00426002000904FF4005000F053F8060033
S315080061B0F6B2042E2DD1DFF89400006850F00100E5
S315080061C0DFF88810086025804FF4005000F042F888
S315080061D00600F6B2042E13D1A01C0090280C0099D4
S315080061E008804FF4005000F035F80600DFF85C0030
S315080061F0006841F6FE710840DFF85010086008E0B4
S31508006200DFF84800006841F6FE710840DFF83C10E8
S3150800621008603000C0B276BD04200D490968C90778
S3150800622002D5012108000FE009490968490702D586
S315080062300221080008E006490968C90602D50321B3
S31508006240080001E004210800C0B27047102002408F
S315080062500C20024038B504000425FFF7DDFF0500D1
S31508006260EDB2012D06D1002C04D0FFF7D5FF0500AD
S31508006270641EF5E7002C01D1052005002800C0B2F0
S3150800628032BD0000002203881A00DFF8E032984287
S3150800629012D0DFF8643398420ED0B0F1804F0BD09D
S315080062A0DFF84033984207D0DFF83C33984203D0F2
S315080062B0DFF83833984204D14FF68F731A404B886B
S315080062C01A43DFF82C33984208D0DFF8283398426F
S315080062D004D04FF6FF431A40CB881A4302808B88B6
S315080062E083850B880385DFF8843298420FD0DFF860
S315080062F0083398420BD0DFF80433984207D0DFF80A
S315080063000033984203D0DFF8FC32984201D10B7A69
S31508006310038601238382704770B400230024002279
S31508006320058C4FF6FE7635400584058C2C0085884D
S315080063302A00058B2B004FF68F752B404FF6FC7500
S315080063402B400D882B434FF6FD752C400D892C43A9
S315080063504D882C43DFF81452A8420FD0DFF8985224
S31508006360A8420BD0DFF89452A84207D0DFF8905223
S31508006370A84203D0DFF88C52A84213D14FF6F7751E
S315080063802C404D892C434FF6FB752C408D882C43A9
S315080063904FF6FF652A404FF6FF552A408D892A4356
S315080063A0CD892A4382800383CD888586048470BC80
S315080063B07047F8B504000D000026012768880028F4
S315080063C002D10220060001E000200600A888012864
S315080063D002D10220070001E00120070028880028D2
S315080063E016D12B89AA886988200000F088F8E988E0
S315080063F0200000F069F82B893A0092B2310089B280
S31508006400200000F0B5F8E988200000F066F815E0ED
S315080064102B89AA886988200000F0AAF8E988200054
S3150800642000F05BF82B893A0092B2310089B220005D
S3150800643000F065F8E988200000F046F8F1BDC9B219
S31508006440002904D0028852F00102028004E0028882
S315080064504FF6FE731A4002807047C9B2002906D06B
S31508006460B0F8442052F40042A0F8442005E0B0F801
S3150800647044205204520CA0F844207047D2B2002A95
S3150800648003D083890B43838102E083898B4383810D
S315080064907047002203891A004FF68F731A400A4381
S315080064A00281704702894FF6F8731A400281028901
S315080064B00A430281704702894FF67F731A400281A8
S315080064C002890A4302817047028B4FF6F3731A401A
S315080064D00283028B0A4302837047028B4FF2FF3313
S315080064E01A400283028B52EA012202837047808E89
S315080064F07047008F704789B2CA4302827047F0B46A
S3150800650000250024068C4FF6FE773E400684068B4F
S315080065103500068C34004FF60C76354052EA0316E1
S315080065203543124EB0420ED0334EB0420BD0B0F1C6
S31508006530804F08D02B4EB04205D02B4EB04202D029
S315080065402A4EB04206D14FF6FD76344051F0010688
S31508006550344305E04FF6F576344051F001063443EE
S3150800656005830484F0BC704700000000002C01403D
S31508006570F0B4002600240025078C4FF6EF7C1CEAB1
S3150800658007070784078B3E00078C3C000F013D0078
S3150800659040F6FF473E4056EA033656EA02261A4FA9
S315080065A0B8420ED0144FB8420BD0B0F1804F08D085
S315080065B00C4FB84205D00C4FB84202D00B4FB84228
S315080065C006D14FF6DF773C4055F010073C4305E00F
S315080065D04FF65F773C4051F010073C43068304842E
S315080065E0F0BC70470004004000080040000C004062
S315080065F000100040001400400034014000400140F3
S315080066000044014000480140002C014080B54E4836
S31508006610006850F001004C4908604C4800684C4935
S3150800662008404A490860484800684A4908404649B7
S3150800663008604548006830F48020434908604348AC
S31508006640006830F4FE004149086043485FF41F01C2
S31508006650016000F004F841484149016001BD80B578
S3150800666000F001F801BD82B00020019000200090E2
S315080066703548006850F4803033490860324800686D
S3150800668010F4003000900198401C019000980028F2
S3150800669003D10198B0F5A06FF0D12B4800688003AC
S315080066A002D50120009001E0002000900098012802
S315080066B047D12C48006850F010002A49086029483C
S315080066C0006880088000274908602648006850F05E
S315080066D00200244908601D481C49096801601B48D6
S315080066E01A49096801601948006850F4806017491A
S315080066F008601648006830F47C101449086013488E
S31508006700006850F4E810114908600F48006850F016
S3150800671080700D4908600C4800688001FBD50B485D
S31508006720006880088000094908600848006850F039
S315080067300200064908600548006810F00C000828A1
S31508006740F9D102B070470000001002400410024060
S315080067500000FFF8FFFFF6FE0810024008ED00E013
S3150800676000400008002002401C49086070471C4988
S3150800677000220A701A4900220A70C0B201000129D3
S3150800678002D0042904D007E0154901220A7003E063
S31508006790134905220A70FFE77047C9B2002905D0D8
S315080067A0104A126802430F4B1A6004E00D4A126839
S315080067B082430C4B1A607047C9B2002905D00A4AB1
S315080067C012680243084B1A6004E0074A12688243BB
S315080067D0054B1A607047054908707047D800424251
S315080067E020100240181002401C10024007100240F8
S315080067F00149C0B20860704720000E4280B5904833
S3150800680000680021817200F033F900F055F900F0B4
S31508006810CAF98C480021016001BD80B58848006826
S3150800682000218172864800688749C979417284487F
S3150800683000680021C1720020FEF7E8FA4FF40071E3
S315080068400020FEF7EAFA10210020FEF7F6FA4021AA
S315080068500020FEF7BDFB80210020FEF7A7FB0020E5
S31508006860FEF75FFB794890F82C1089B20020FEF7F6
S31508006870E8FB0020FEF73DFB00210120FEF7CDFADC
S31508006880C0210120FEF792FB20210120FEF7D5FA50
S3150800689000210120FEF7EFFA4FF4C0610220FEF74F
S315080068A0BCFA4FF480710220FEF780FB002102201B
S315080068B0FEF7E1FA20210220FEF7BFFA00210320A5
S315080068C0FEF7ABFA4FF488710320FEF781FB4021EF
S315080068D00320FEF7B6FB4FF440510320FEF7CBFA30
S315080068E000210320FEF7A9FA0020FEF733FA5548DF
S315080068F00121016001BD5648817A002902D051491B
S3150800690005220A6070474F4804210160704780B528
S3150800691050480078202804D100F046F94D48002157
S31508006920017001BD704738B5040000200500E4B2C7
S31508006930212C09D142480068007810F07F002128F0
S3150800694011D1454805000EE0E4B2202C0BD13C4895
S315080069500068007810F07F00212801D13F48050023
S315080069603C48202101702800002801D1022009E0B6
S31508006970334800688561324800680021418200205A
S31508006980A847002032BD01002D480068007810F0A5
S315080069907F00212809D1C9B2022901D1002005E0CA
S315080069A0C9B2222901D1002000E00220704710B5A3
S315080069B004002B49200080B2FDF70AFE10BD10B571
S315080069C004002849200080B2FDF702FE10BD38B544
S315080069D004001B480068C578EDB2052D01D30020D8
S315080069E007E0EDB2204810EBC501200080B2FDF7A4
S315080069F0EFFD32BD0200C9B2012901D3022005E02C
S31508006A00D2B2022A01D3022000E00020704701001A
S31508006A1089B2002905D10A480068082202820020A6
S31508006A2000E012487047010089B2002905D10448E0
S31508006A30006808220282002000E00C487047000027
S31508006A4058090020640900209871000800000020F9
S31508006A50280900207D0900200F6A0008276A000817
S31508006A60D0000020D800002054000020C8000020D4
S31508006A7010B5012000F086F8012004000B48A4B2E6
S31508006A8004600B480021018008480949098801600B
S31508006A9008480021016006484FF4E0510180034888
S31508006AA0034909880160002010BD0000405C0040D1
S31508006AB06C090020445C0040064800210160064835
S31508006AC04FF4064101800548034909880160002002
S31508006AD070470000445C00406C090020405C0040A0
S31508006AE070B504000D00002614F07F00FEF7D1FAF9
S31508006AF0060014F07F00FEF78AFA320092B201000F
S31508006B0089B22800FEF709FB300070BD80B5012167
S31508006B100820FFF742FE4FF48040ADF8000003203E
S31508006B208DF8020014208DF8030000A95148FFF7DC
S31508006B30B9F801BD80B50020FFF716FE01215FF404
S31508006B400000FFF739FE01BD80B54FF4C06000F0C4
S31508006B509DF814208DF8000001208DF80100002012
S31508006B608DF8020001208DF8030000A800F093F8C4
S31508006B7025208DF8000000208DF8010000A800F0FF
S31508006B808AF801BD10B50400E4B2002C05D04FF414
S31508006B9080413848FFF732F904E04FF48041354820
S31508006BA0FFF729F910BD70470120704738B53248FC
S31508006BB0007801285CD031480068B0F5006F02D132
S31508006BC02E48002101602D4800682D490968884231
S31508006BD003D12948002101704AE02948006827495D
S31508006BE00968884206D225480068D0F5006025491C
S31508006BF0086006E02248006820490968401A2149C9
S31508006C0008602048006841280FD31C480068040023
S31508006C10402005001948006840301849086019489E
S31508006C2000684038174908600FE0144800680400F7
S31508006C3014480068050011480068124909680818D0
S31508006C400E4908600F48002101600B4801210170B8
S31508006C502A0092B2C021A4B20B482018FEF73DFACA
S31508006C60290089B20120FEF7DFF90120FEF729F98C
S31508006C7031BD0000000C01407909002048090020B8
S31508006C80440900204C090020E80000201F49014360
S31508006C901F4A11607047F0B4002300210F22C47800
S31508006CA0002C20D01A4C246814F4E064D4F5E0646F
S31508006CB0240A2300D3F104042100DA4044788C40E6
S31508006CC023008478144023431B010478114D63552F
S31508006CD004786411104D0126077817F01F07BE4087
S31508006CE045F8246009E0047864110C4D01260778FC
S31508006CF017F01F07BE4045F82460F0BC7047084AE5
S31508006D000A400243074B1A60704700000000FA0564
S31508006D100CED00E000E400E000E100E080E100E0C6
S31508006D2080FFFF1F08ED00E080B50020ADF80000E9
S31508006D308948006889490880000440F10B81874822
S31508006D40008810F00F0086490870854800780028EA
S31508006D5040F0C480834884490968018081480088D6
S31508006D6010F03000814908807E48008810F44050B1
S31508006D707C4908807C49096889B24BF6BF72114084
S31508006D80080090F4005090F0200080B240F40040D3
S31508006D9050F080007449086070480088C00630D4F6
S31508006DA07148006880B248F60F7108406E4908605D
S31508006DB0FDF751FF6C49096889B24BF6BF7211405D
S31508006DC0080068490988C90401D590F480506549C6
S31508006DD00988890401D590F4005064490988C906D0
S31508006DE001D590F0100061490988890601D590F00F
S31508006DF0200080B240F4004050F080005A490860F4
S31508006E00A8E059480068ADF80000BDF80000000584
S31508006E102FD55548006840F68F71084052490860DA
S31508006E20FDF7CEFE5049096889B24BF6BF7211408C
S31508006E3008004C490988C90401D590F4805049498D
S31508006E400988890401D590F4005048490988C9067B
S31508006E5001D590F0100045490988890601D590F0BA
S31508006E60200080B240F4004050F080003E4908609F
S31508006E7070E0BDF8000000047FF55AAF3A48006894
S31508006E8040F68F71084038490860FDF718FF364903
S31508006E90096889B24BF6BF72114008003149098862
S31508006EA0C90401D590F480502E490988890401D572
S31508006EB090F400502D490988C90601D590F01000B4
S31508006EC02A490988890601D590F0200080B240F445
S31508006ED0004050F08000244908603BE020480078D4
S31508006EE0214951F82000ADF80000BDF80000000463
S31508006EF014D51B4800781C4951F8200040F68F71BC
S31508006F00084017490978184A42F8210014480078B9
S31508006F10174911EB800050F8040C8047BDF80000B3
S31508006F2000067FF505AF0E4800780F4951F8200096
S31508006F3080B248F60F710840094909780A4A42F8AA
S31508006F402100074800780B4911EB800050F8040C23
S31508006F508047EDE601BD0000445C00407209002050
S31508006F607B0900206E090020005C004070090020A3
S31508006F70AC0000209000002080B5FEF753FF0020EB
S31508006F80FEF7D3FFFEF75EFF00F086F84FF4804168
S31508006F905FF00060FFF7B3FEFFF7B8FDFFF7CAFD25
S31508006FA000F0D0F80120FEF7C0FFFFF7CDFD33480B
S31508006FB0002101703248002101703248FE2101701B
S31508006FC031485FF0804101600420FEF7D6FF2F4864
S31508006FD0022101600A20FFF7CDF82C485FF4003142
S31508006FE001607F2291210220FEF713FC27484FF407
S31508006FF080610160D020FEF73EFDFEF7ABFD21491A
S315080070000870FEF7A7FD1F49087020485FF08061E9
S3150800701001601A480078AA2806D11D480078692810
S3150800702002D1FEF791F80DE014480078AA2809D194
S3150800703017480078692805D01048002101700320F8
S31508007040FDF757FF01211348FEF7C8FE0D490870E2
S315080070500C480078012808D10B485FF00051016000
S3150800706009484FF480410160D3E707485FF0804143
S31508007070016005484FF400510160CAE7780900200D
S3150800708074090020E400002010100140100C014093
S31508007090E8080020000C014000B585B00121042055
S315080070A0FFF78AFB8020ADF8000004208DF8030066
S315080070B003208DF8020000A91748FEF7F3FD00F03B
S315080070C02FF80420ADF804000020ADF806000120D2
S315080070D0ADF808000020ADF80A000020ADF80C0055
S315080070E001A90E48FFF765F960210C48FFF7D1F9A9
S315080070F004210A48FFF7D6F980210848FFF7DBF98B
S3150800710001210648FFF79BF9012204210348FFF7EE
S31508007110B5F905B000BD0000000C014000080040AC
S3150800712080B51E208DF8000000208DF80100012092
S315080071308DF8020001208DF8030000A8FFF7ABFDCB
S3150800714001BD000080B50948094901600748006883
S315080071500221017207480849016008480849016088
S31508007160044800680068804701BD00BF5809002030
S31508007170280900205C090020000000206009002082
S3150800718030000020120100020200004075070216B6
S31508007190000201020301000009024300020100C0C7
S315080071A0320904000001020201000524001001054D
S315080071B024010001042402020524060001070582B1
S315080071C0030800FF09040100020A0000000705037E
S315080071D0024000000705810240000000040309047C
S315080071E02603530054004D006900630072006F00C7
S315080071F065006C0065006300740072006F006E0025
S315080072006900630073000000320344005A004D0011
S3150800721049002000200056006900720074007500BD
S3150800722061006C00200043004F004D002000500014
S315080072306F007200740020002000000080B5174817
S3150800724017490968018015480088164909880840C1
S3150800725080050AD512484FF6FF510160124800789A
S31508007260401C1149087000F02DF80C4800880D499B
S3150800727009880840000401D5FFF756FD074800882D
S31508007280084909880840400506D505484FF6FF31E4
S31508007290016006484068804701BD00BF72090020AA
S315080072A0445C00406C0900207C0900200000002096
S315080072B0704780B50C490320FFF712FC0B48AA213A
S315080072C0017001BD80B50A48006805280BD1094838
S315080072D00068411C074A1160052804D105480021A9
S315080072E00160FFF763FC01BDE8080020780900206B
S315080072F064090020540900207047FEE7FEE7FEE710
S31508007300FEE7704770477047704780B5FFF796FFEE
S3150800731001BD80B504210448FFF7EDF80248FFF7E0
S31508007320E8F80249088001BD000800406809002005
S3150800733010B5084979441C31074C7C441A34A142DB
S3150800734006D0081D0A68511888470146A142F8D197
S3150800735010BD00BF0800000028000000A7EAFFFFD4
S3150800736098080000E80000200000000073DAFFFF1C
S31508007370E800000080010000000000200000000076
S3150800738000F009F8002801D0FFF7D2FF0020FFF728
S31508007390F3FD00F002F80120704780B500F002F80E
S315080073A000BF00000746384600F002F8FBE7000079
S315080073B080B5C046C046024A11001820ABBEFBE79E
S315080073C02600020001488047014800470D6600086C
S315080073D0D5730008C046C046C046C046FFF7D0FF72
S315080073E0FFF78ABFFFF789BFFFF788BFFFF787BF99
S315080073F0FFF786BFFFF785BFFFF784BFFFF783BF99
S31508007400FFF782BFFFF7FEBFFFF7FEBFFFF7FEBF1E
S31508007410FFF7FEBFFFF7FEBFFFF7FEBFFFF7FEBF92
S31508007420FFF7FEBFFFF7FEBFFFF7FEBFFFF7FEBF82
S31508007430FFF7FEBFFFF7FEBFFFF7FEBFFFF7FEBF72
S31508007440FFF7FEBFFFF7FEBFFFF7FEBFFFF7FEBF62
S31508007450FFF7FEBFFFF759BFFFF7FEBFFFF7FEBFF7
S31508007460FFF7FEBFFFF7FEBFFFF7FEBFFFF7FEBF42
S31508007470FFF7FEBFFFF7FEBFFFF7FEBFFFF749BFE7
S31508007480FFF7FEBFFFF7FEBFFFF7FEBFFFF7FEBF22
S31508007490FFF7FEBFFFF7FEBFFFF7FEBFFFF7FEBF12
S315080074A0FFF7FEBFFFF7FEBFFFF7FEBFFFF7FEBF02
S315080074B0FFF7FEBFFFF7FEBFFFF7FEBFFFF7FEBFF2
S315080074C0FFF7FEBFFFF7FEBFFFF7FEBFFFF7FEBFE2
S315080074D0FFF7FEBFFFF7FEBFFFF7FEBFFFF7FEBFD2
S315080074E0FFF7FEBFFFF7FEBFFFF7FEBFFFF7FEBFC2
S315080074F0FFF7FEBFFD6700081B6800080F69000854
S31508007500256900082769000887690008F5690008E1
S31508007510AF690008BF690008CF69000800000000CD
S3150800752040000000DD4D0008F7680008DD4D000842
S31508007530DD4D0008DD4D0008DD4D0008DD4D000875
S31508007540DD4D000807690008DC710008040000002A
S31508007550E0710008260000000872000832000000EA
S31508007560740000201A0000001A03530054004D004E
S315080075703300320031003000000000000000000037
S3150800758000000000B1720008DD4D0008DD4D00085E
S31508007590DD4D0008DD4D0008DD4D0008DD4D000815
S315080075A0DD4D0008DD4D0008B3720008DD4D00080A
S315080075B0DD4D0008DD4D0008DD4D000800C2010064
S315080075C00100080084710008120000009871000884
S311080075D04300000004010000FE0000005B
S705080073D5AA
