S105000008A052
S1130010B8DFFF3CD157CD57C957C557C157CC7727
S1230020C877C8CFCCC1CACF0F3C13566A3C14562D809F80003C1156438071809880145855
S12300401148B7E528A01158C457CCC9CCD923A01158C457CCCBCCDB28A010D29080A03C06
S1230060115682807A8010F22DA01358115682807A8010F22DA01458115682807A8010F2DC
S12300802DA098800C009080A03C115682807A8010F243A01358115682807A8010F243A084
S12300A09080A13C115682807A8010F243A059800C00083C1556C9DFCCD1A880CCC1B7D1F1
S12300C0C8FFB7C11152156A5CA0C9CFCCD10C00C8DF0000000000000000CCC1000000008A
S12300E00C00CCD1C8CFC9CF00000000CCC1000000000C00C9DFCCC1A880C8FF10C2C9CFFD
S1230100CCD10C00083C155611EE88A0C8CF89A0C8DF1152CCC1A880CCD1156A84A00C0091
S1230120C8CFCCC1A880C8DFA880CCD1A8800C00CCD1C8DFA880CCC1A880C8CF0C00117684
S1190140093C12560000116AA2A0126AA2A00C00000000000C0065
S10507FEB8DF5E
S30500001631B3
S903FFFFFE
