S10500003F2992
S1130010A0150311A1158F3013288F3886351428A5
S1230020B33F12211428A71D0F303C280F3CF00B8115B019A3192416231203302028063C67
S12300402616231203302528063D2516231203302A28863CF20B231203303228A31D0639F3
S123006086380638040BB31033313C28A719FE0B271203303C28A71B4B3040284B3C3439B4
S123008021118315A01120110D00333E2A1C971517162B1003314D284E280C29281C971594
S12300A0171629100331552856280C29000B281703355B280C29B3315E280C29B3392B166C
S12300C0450803316828333066280C293338B33E33346B280C292B164608033171280D21D0
S12300E00C292B16470803317E28200BB4100A0BB115B33CB01DFF0BAF150C292B16440847
S123010003318A28400B9A15380B9B15FA0BA215B33A0C292B16400803319328800B9A1578
S1230120700B9B1586282B16430803319A28100BB4100C292B16160803319F28971D2B16FD
S123014019080331A528010B97152B160D080331AB28020B97152B160C080331B128030B3B
S123016097152B1618080331B728040B97152B165E080331BD28050B97152B16080803319F
S1230180C328060B97152B161C080331C928070B97152B165A080331CF28080B97152B169D
S12301A042080331D528090B97152B1652080331DB280A0B97152B164A080331E1280B0B87
S12301C09715343E1716850E9815020B0334010E99151816951519169615800B5D22A4151A
S12301E01716790E9815020B0334010E99151816951519169615800B5D22A51517166D0E7B
S12302009715020B0334010E98151716951518169615800B5D22A6150C00333CB33B030B42
S1230220AE150C0033362729410B2712033419293E294C0B271203301E293E29333AA81D2A
S1230240A91DAA1DAB1DB33D200BAC153E29290B271203302D29333E3E291E0B271203309F
S123026032293E29110B2712AA13AB13A813A913AC1B000B2C1703313E2945200C008E3F83
S12302800E0012220722343A333886398E3889398E3B9C1D9D1D1D16800E800E0331522995
S12302A0130B1C12033468291C16B91539164A0E9E15020B0334010E9F151E1695151F16B2
S12302C09615800B5D22B8159C1903359D194B29B3336C294B3C0F3C000B32170331722911
S12302E0333476294638C638463989299E1D34369E191E169F1503317E2986291F160108BB
S123030003318929463CC63C463D8929B4328929B32134316829343D0E00000B32170331D1
S1230320AF293330B02934329729C421B029B432B029AF190B0B2F120330B029AF1DB33028
S1230340A829B119330B31120330B029B33CB029B11B0A0B31120334B029B338B029B21BE4
S12303602C2268290C00311630120330C02946394638C638330B30120330C329B01DC32996
S1230380463D463CC63C0C00AD19040B2D120330062AAD1DB01B000B30170331DD297F0B24
S12303A0A5157F0BA4157F0BA615B119060B31120330DB29B11D7F0BB015000B31170331FE
S12303C0E429A519A61B062A311601080331EB29A51BA619062A311602080331F229A419B9
S12303E0A61B062A311603080331F929A41BA619062A311604080331002AA419A51B062A54
S1230400311605080331062AA41BA5190C00150B8415801D8419C00B04120330092AFA0B58
S1230420A2150C00063886380639C51DC61DC639FF0B8B15FF0B8D158C1D010BC115F00B1A
S123044081150E38CB1D860BCC15F90BCE15CF1D800B8815891D0C00A21B000B221703357C
S1230460322A492AFA0BA21533343D2AAE1B000B2E1703313C2A0D21492AB336402A492A05
S1230480FF0B9A1F03309B1B1A161B170331492A0D210C003F0A060A5B0A4F0A660A6D0A6B
S12304A07D0A070A7F0A6F0A770A7C0A390A5E0A790A710A730A000A000A00080335642A8F
S12304C080080335682A000A1516841500160C0016168A15151682150C00FF0AFF0A0E0A13
S12304E0FC0AF70A260AFF0AAE0AD60A230AD60A750AFF0A0E0AFF0A8B0A180AF70A260A82
S12305001F0A260A580AF70ADD0A0E0AFF0AFF0A1A0AA00AE30A000AAE0A310AE30A270A34
S1050520AE0A1D
S30500001230B8
S903FFFFFE
