S1230000011408043600FF0486000104BA000104B4006404B900F100EF00EE00FC00250074
S123002040060807310042048100061D461D0404B800C912A004FD12EF120004FD12EF1286
S1230040C912A104FD12EF120E13DC12D112BA0BFF01831A2C1455140104BA00C912A004D1
S1230060FD12EF120004FD12EF12BA0BFD12EF12D1126404AA125514031E7A0BBA0B831A0B
S12300807A0D0104B4006404B900EF00EE00C912A004FD12EF120004FD12EF12BA0BFD12A7
S12300A0EF12D1126404AA120000BA0B0101831A7514BA0B0201831A7C14BA0B0401831AEB
S12300C07E14BA0B0801831A8014BA0B1001831A8214BA0B2001831A8414BA0B4001831AC4
S12300E08614BA0B8001831A88148A101A113511C511D4114F1255148A1055141A115514BC
S123010035115514C5115514D41155144F1255146E1255140104B4003204B9000204B70087
S1230120EF001004AD006004B0000000C710F00D95140104B400ED0D93146F0D1004AD00E3
S12301406004B0000000C710F00DA214ED0DA014EF000104B700EF000804AD006004B000E8
S12301600000C710F00DB0140104B400ED0DAE146F0D1004AD006004B0000000C710F00D49
S1230180BD14ED0DBB14EF006404B9000400B70BB800B40BB100390AB5002F18D014D314B9
S12301A0061D461FD514461D061FC618D9143C1EE0143C18DC14E0143C1CBB12C6183C149E
S12301C00F18E0140F1E42048100F10DCD142F18EA14ED14061F461DEF14461F061DC618F6
S12301E0F3143C1EFA143C18F614FA143C1CBB12C6183C14B112F50DE714F80DC9142E1AE3
S12302000E1502150000740DB40BB20031047209B20B831A0C1519156E0D19150000740E2A
S1230220B40BB20001047209B20B831A18151915EE0004000404B0007D04B1002A110804F1
S1230240B0003E04B1002A111004B0001F04B1002A110400061D461FB10B9912061F461D6E
S1230260B10B9912F00D2A1504000104B4000604AD00B800C404B0006E11F00D3C156F0DEA
S12302800604AD00B800C404B0006E11F00D4515EF000404AD00B800C404B0006E11F00D4D
S12302A04E150404AD00B8006F0DC404B0006E11F00D5715EF000204AD00B800C404B000BC
S12302C06E11F00D60150404AD00B8006F0DC404B0006E11F00D6915EF000400B40BB1006B
S12302E0390AB5002F1A7715461F061D7915061F461DC6187D153C1E87153C1880158715A4
S12303003C1CBB12C6183C140F1E420481000F1887150F1E42048100F10D72152F1A921566
S1230320061F9315461FC61897153C1E9E153C189A159E153C1CBB12C6183C14B112000024
S1230340F50D8E15F80D6E15AD0BB8002E1AB715A9150000740DB40BB70063047709B70B8A
S1230360831AB315C4156E0DFE04B800C4150000740EB40BB70001047709B70B831AC1157B
S1230380C415EE005004B80004000804B0001004B1002A11551255120804B0001004B10077
S12303A02A115512551204000104AB000604AD00C404B000EA110104AB000404AD00C40425
S12303C0B000EA110104AB000204AD00C404B000EA110400EE11F00DEA1504002F1AF51542
S12303E0B40BB100390AB500F915AB0BB100390AB5002F1AFD15061DFE15461DC61802163A
S12304003C1E09163C18051609163C1CBB12C6183C140F1809160F1E42048100F10DF91538
S12304202F1A1416061F2016461FC61819163C1E20163C181C1620163C1CBB12C6183C14D9
S1230440B112F50D1016061F461FAF0B0101AF00061F461FF80DEE15AD0BB8002E1A401618
S123046031160000740D6B0DB40BB20063047209B20B831A3C164E166E0DFE04B8004E163C
S12304800000740E6B0EB40BB20001047209B20B831A4B164E16EE005004B8000400080443
S12304A0B1005512F10D511604000404B000061D461F10049912061F461F10049912F00D72
S12304C057160404B000461D061F10049912061F461F10049912F00D631604002004AD0018
S12304E0FF04B100C61876163C1E7D163C1879167D163C1CBB12C6183C140504B000061D48
S1230500461FB112061F461DB112F00D7F16F10D7216ED0D70160400C61891163C1A3C149D
S123052098163C1A9816BB12C618971698163C1C0400B700C6189E163C1EA5163C18A1163A
S1230540A5163C1CBB12C6183C146404AA12F70D9A160400B600B112F60DAB160000000070
S123056004000104B3004004B200F20DB516F30DB3160000040000000A04AC006404AA1250
S1230580EC0DBE1604000104B7000000F70DC5160400461E861C461CB112861EB112461EF1
S12305A00400861E461CB112861C0400861E461CB112461E861C0400861C461CB112461EC6
S12305C00400861E461C00000000461E000000000400861C461CC312461EC3120400861CED
S12305E0461CB1120A04B000861AF716F916F00DF416461EF000B1120400B1000804B000C9
S1230600710B031A04170617861C0717861E461CB112461EB112F00D00170400861C08048F
S1230620B000F100461CB112861817171A17031E710B1C17031C710B461EB112F00D12173B
S1230640B10BBA00040000000000000000000000000000000000000000000000000000001C
S1230660000000000000000000000000000000000000000000000000000000000000000076
S1230680000000000000000000000000000000000000000000000000000000000000000056
S12306A0000000000000000000000000000000000000000000000000000000000000000036
S12306C0000000000000000000000000000000000000000000000000000000000000000016
S12306E00000000000000000000000000000000000000000000000000000000000000000F6
S12307000000000000000000000000000000000000000000000000000000000000000000D5
S12307200000000000000000000000000000000000000000000000000000000000000000B5
S1230740000000000000000000000000000000000000000000000000000000000000000095
S1230760000000000000000000000000000000000000000000000000000000000000000075
S1230780000000000000000000000000000000000000000000000000000000000000000055
S12307A0000000000000000000000000000000000000000000000000000000000000000035
S12307C0000000000000000000000000000000000000000000000000000000000000000015
S12307E00000000000000000000000000000000000000000000000000000000000000114E0
S30500000134C5
S903FFFFFE
