S10900001928A50B200BDA
S11300109015031691150F3115280F3D00000000AF
S1230020000000000000000000001116831510160D00060B090BC515FF0BC6150D3CAA0BE8
S123004092151238000000000000120B84150A0B80158019200B8415100BA015A03C000042
S12300600000A03000003F38A034000000008E3B550B90159019000000005320FE0B8515D4
S1230080000049200000000B8515000000005A20382800004D2000000C000000512000008A
S12300A00C0000000C0046380D3C413F083B0E39883F0C0046380D3C413B083B0E39883FEC
S10500C00C002E
S10507FE8E1D4A
S30500001030BA
S903FFFFFE
