S12300000128D20B9515000B9615800B7F20981516169715D40B9915000B9A1517169B15A3
S123002018169C15FF0B971F0330981B1B161C1703356D28040B191F9B159C1D9C141A1676
S12300409C1F1B1695151C169615800B7F209E1516169D15191695151A169615800B7F2090
S1230060A0159C1516169F159B15020B191F9B159C1D9C141A169C1F1B1695151C16961585
S1230080800B7F209C15A21516169B15A1151D16A1151E16A215FF0B9D1F03309E1B21167B
S12300A02217033568281F16951520169615800B6F20A1151B168415833F1C34833B2116DA
S12300C080159F190335A0199B1903359C194728060B991F03349A190E28BD280C000008EC
S12300E003357628800803357A28000A1516841500160C0016168A15151682150C00000833
S123010003358728800803358E28961D000A1516841500169615841900160C007A2094153A
S12301209518961B96197A2093151416961513160C00A4151616A515020B241FA615080BA5
S1230140241FA7152716A61F2416251FA4152416A612040B26120330B028800B8615B12820
S1230160861D0C004D16A315000B23170335BA28C51DBC28FF0BC5150C008E3F0E00AA0B0C
S1230180C515851D010B8615811DB2202916A815051C8515A81987190716961528169920F1
S11901A0C8280C00010A000ADA0A000A2A0A000A010A000A000AE9
S30500001230B8
S903FFFFFE
