S1090000262800000000A8
S11300108015031681150E3018280E3C8719873178
S12300201828871D8819081603351828881D04380E311B280E3D8E301E280E3D0E16070D6C
S123004003340B280116831500160D00883F083FC115550B87150000071603304628871D1E
S12300600000071603304628100B8415300B8715FF0B80150000001603314628801900162D
S1230080033146288419871A3828482800168615010BC115830B81150E38C51DC61D851D48
S12300A0861D0E00883B8E3B0E005D20962062207B207C207D20A420542804306128043C2B
S12300C089190C001A30692884346A288438043A6A28043E9A317128043572280439843A49
S12300E07228843E1D30792884357A288439043B7A28043F0C000C000C00871D0E0B071F6F
S123010084150016010BFE238215120B071F841502168015871907317E280534123A853423
S1230120133A0535143A8535153A0C001A0B8415050B8315420B8215C020D2200216801508
S12301408419831A9D280C00030B8215C0200538400B8215C0200538C00B8215C020120B70
S12301608415831D00168215C020C020841983198331B2280538880B8215C02005380C007E
S1230180053C4539871D8739053D853C023405398213000000000000000000008538871ACE
S12301A0C4280C00053C453D871D8739853C000000000000033C0535033882138538871AB4
S10701C0D6280C002D
S10B07D8400A000AC50ACD0A1B
S11F07E06E0A8D0A6D0AE70AEB0AEF0AA20AED0AE90A630AEA0ACE0A220AAF0AE0
S10507FE2628A7
S30500001030BA
S903FFFFFE
