S123000012280D00FF0EFF0EFF0EFF0EFF0EFF0E0D29821F200A230A300A330A400A430A0B
S1230020500A530A903D0316980D033590390E008E3F020BC115001D831588158F158E1522
S1230040BA0BC615020B9037420B8615FF0B8B15000B8C150F0BC515CF0B8D15472290354C
S12300605E28100B8415801D841904163F0D300803313328030B60214A22280BAA150636B2
S12300804B28FA0B522306364B28063C1A390639063B2A222D29100B9115D8231F16A4155F
S12300A01E16550903355C28550B9E15000B9F15A415100B9115C623AB2176284A2266215C
S12300C0AE190B0B2E120330F928AE1DAA160331AA1BAF160331AF1B10327528AC19060BAF
S12300E02C12033075280639AC1DF921AD1D063C0E00020BC115811D010B8E158E3B9038F1
S1230100140B9D150E0039226621012258228622AB2A1031E828103D221629120331932800
S123012096160331E8282216A915941D141609209115D82320169E120331A52821169F1261
S12301400331A528903C8A21E8289419080B1412033096281037BA28AA160335E8282216D3
S12301602F090331E828040B9615903C103B280BAA15E828AA1D221622090335CD2822169D
S123018021090335CD282216E00D20090331CD28240B22120335B821E828103F903C040BDF
S12301A0961524160920911520169E1521169F15C6231E0B5223A419080B24120335A41D2D
S12301C0550B9E1524169F15100B9115C623EB21103782289A348228A616033182289616B5
S12301E0033182289D160335903C903482281A3582285822261603317628961D06388E3FB9
S1230200001D83158815090BC1150E00001D8E15800B88150B000000822892159211031195
S123022093150F3029290F3C150B81159D1603319D1B97199B19AD19033510382D167F0D68
S12302400331292910332729040B861029291036063D1311831512110D000E0006322D2979
S12302600A0B522306322D293F220E005822A6333529A63F0A0B6021063D1A3C0E006C2193
S12302801A303E291A3C140B60210E004D22103245292522060B60213F22550B9E15700BBE
S12302A09115C623640B52239E1D700B9115D823550B9E1203315F29AB211A3D76287628C5
S12302C09415FA0B5223941A61290C001037892990338929903289291A16080D94150616C7
S12302E0080D141203358929010B52230616080D1412033589299A3D0616080D9A17033522
S123030089291A38070BC515853DFA0B52230F0BC5150C00050B96151037B8292216E00DA5
S123032020090331B129221622090335AB29221621090335AC29240B22120335AD29280B00
S123034022120335AF2922162F090331F829103B280BAA15F829982A932A2F22F8292A22F5
S1230360F8299033F82922160F0D0335F8298129240B22120331DE29AA1D103F8E3F06395D
S1230380A41D550B9E1524169F15100B9115C623320B5223941D141609209115FF0B9E15D4
S12303A09F15C6231E0B52239419080B14120331CB290A0B6021063D8E3B0C0022162209DF
S12303C00335EB29221621090335EB292216E00D20090335F829103F8E3F0639060B60218B
S12303E0063D040B60210639060B6021063D8E3B0C00AB160335002AAB1B0331002A903A2C
S12304000C0010301F2A103C10330C2AAA1BAA1603310C2A103F063DA8160331A81B96169C
S12304200335152A961B03359038F92110321F2AAC190C0B2C1203301F2A0639AC1D0C0041
S12304404516FD0DC515853C342A4516FB0DC515053D342A46167F0DC615863F342A45161C
S1230460FE0DC515053C342A9B1D9A38280BAF150C009A30462A640B1B120330462A9A3C18
S12304804516850CC5154616020CC6150C001B0B88150C00AF160331572A0816200D941504
S12304A014160331552A103E572A103A572A0C007B2227120335682A0A0B52237B22911548
S12304C027120335682A1116A71503356B2A792A2636722A712AA631702AA61DA638792A7A
S12304E0A61D0C00A81603310C002638A63D263E792AA63B0C000616200D200891150C00D3
S1230500A6390C00050BA815263A0C00A6338F2AA63F2634902AA6349F2A802282220C0033
S1230520263C9033982A903F063FAB1D25220C00090BAB15903E903B063B20220C00A63CC3
S12305402F220C009115050BFF0E0331A42A0E00911AA32A0C00020B9515981D8634B32AE0
S1230560E9220335E82A1F231F2303090335E82A951AB42A971D9737E82A0D23FB22640B6B
S123058019120330BB2AA00B19120334BB2AA31DA01DA11DA21D200B8415040BA515080B88
S12305A095159C1D1F23941501090330E82A00099C14951AD22A1C1680158419A51ACF2A1A
S12305C02016211F221F23120331E82A1039000089280E008634F62A010BA2229819960BE1
S12305E018120330E92A991D03390C0018169915981D033D0C000E008634082B010BA222E1
S12306009819FE0B18120330FB2A991D03390C0018169915981D033D0C000E0086301A2BB6
S1230620010BA2229819960B181203300D2B991D03390C0018169915981D033D0C000D23F4
S123064003354F2B1916060B191203304E2B280B19120330342B290B191203304E2B6E0B59
S123066019120330412B4E2BE92203354F2B1916290B191203304F2B6E0B191203344F2BE6
S1230680010AE92203354F2B1916060B191203304F2B280B191203344F2B000AE922191623
S12306A09115030A9115F80BFF0E0331542B0E00911A532B0C00060B0E00FF0E03315C2BF0
S12306C00C004616CF0DC6155B23063A5B23863A5B23063E5B23863E5B230C009C15461660
S12306E0EF0DC615080B9515863E5B230616EF0D9C140334100C86155B23863A5B23951AFF
S1230700742B863E063E4616100CC615863E5B23863A5B2306169C155B23863E5B231C169C
S1230720100D0C004616100CC615080B95159C1D863A5B230616100DFF0E9C145B23863E4D
S12307405B23951A982B1C160C004616EF0DC615063E5B23863A5B23863E5B230C00863A26
S12307605B23863E5B230C004616EF0DC615063E5B23863A5B23063A5B23863E5B23063E32
S12307805B235B234616300CC6150C006123A00B6E2311166E230331EF2B1E166E2303311B
S12307A0EF2B1F166E230331EF2BB423000B0C006123A00B6E230331EF2B11166E2303311F
S12307C0EF2B6123A10B6E230331EF2B92239E15A52392239F15AF23B42303390C00B4238B
S12307E0FF0BFF0AFF0EFF0EFF0EFF0EFF0EFF0EFF0EFF0EFF0EFF0EFF0EFF0EFF0EFF0E2C
S30500001230B8
S903FFFFFE
